:020000040800F2
:1000000000C0002059110008E1030008E3030008C4
:10001000E5030008E7030008E9030008000000000A
:10002000000000000000000000000000EB030008DA
:10003000ED03000800000000EF030008F1030008D2
:10004000A1110008A1110008A1110008A1110008C8
:10005000A1110008A1110008A1110008A1110008B8
:10006000A1110008A1110008A1110008A1110008A8
:10007000A1110008A1110008A1110008A111000898
:10008000A1110008A1110008A1110008A111000888
:10009000A1110008A1110008A1110008A111000878
:1000A000A1110008A1110008A1110008A111000868
:1000B000A1110008A1110008A1110008A111000858
:1000C000A1110008A1110008A1110008F9030008FE
:1000D000A1110008A1110008A1110008A111000838
:1000E000A1110008A1110008A1110008A111000828
:1000F000A1110008A1110008A1110008A111000818
:10010000A1110008A1110008A1110008A111000807
:10011000A1110008A1110008A1110008A1110008F7
:10012000A1110008A1110008A1110008A1110008E7
:1001300000000000000000000000000000000000BF
:1001400000000000000000000000000000000000AF
:10015000000000000000000000000000000000009F
:10016000000000000000000000000000000000008F
:10017000000000000000000000000000000000007F
:10018000000000000000000000000000000000006F
:10019000000000000000000000000000000000005F
:1001A000000000000000000000000000000000004F
:1001B000000000000000000000000000000000003F
:1001C000000000000000000000000000000000002F
:1001D000000000000000000000000000000000001F
:0401E0005FF8E0F1F3
:1001E40010B5054C237833B9044B13B10448AFF36D
:1001F40000800123237010BD0C00002000000000CB
:10020400FC11000808B5034B1BB103490348AFF3C5
:10021400008008BD0000000010000020FC11000850
:1002240072B6FEE700B591B02822002106A800F0BE
:10023400DBFF0023019302930393049305930122AC
:1002440006924FF4803307930A9202220D920E9382
:100254004FF4E0130F9306A800F03EFA80B90F2381
:10026400019302210291002303934FF480620492CC
:10027400059301A800F070FC20B911B05DF804FBEF
:10028400FFF7CEFFFFF7CCFF08B500F0EBF9FFF75F
:10029400C9FF00F003F800F03DF8FEE730B589B07F
:1002A40000240494059406940794184B9A6942F028
:1002B40020029A619A6902F020020192019A9A69D5
:1002C40042F004029A619A6902F004020292029ACC
:1002D4009A6942F008029A619B6903F00803039348
:1002E400039B0B4D224647F20101284600F00AFE0B
:1002F40047F2010304930123059306940223079311
:1003040004A9284600F0DEFC09B030BD001002400C
:10031400000C014008B50E480E4B03604FF4827385
:10032400436000238360C360036143614FF4007240
:1003340082610822C2610362436283620A23C36248
:1003440000F082F800B908BDFFF76AFFFBE700BFC1
:10035400280000200030014030B587B0002302930C
:1003640003930493059302681A4B9A4201D007B091
:1003740030BD03F560439A6942F480529A619A69E8
:1003840002F480520092009A9A6942F004029A613F
:100394009B6903F004030193019BA02302930223AE
:1003A4000393032305930C4D02A9284600F08AFC0D
:1003B4004023029300240394049402A9284600F0E5
:1003C40081FC22462146232000F068FE232000F011
:1003D4009DFECCE70030014000080140FEE7FEE747
:1003E400FEE7FEE7FEE770477047704708B500F088
:1003F4004BF908BD08B5024800F082F808BD00BFFB
:100404002800002082B00E4B9A6942F001029A61E2
:100414009A6902F001020092009ADA6942F080526D
:10042400DA61DB6903F080530193019B054A536849
:1004340023F0E06343F00073536002B0704700BFE1
:100444000010024000000140002856D010B50446B8
:10045400436A33B94368B3F5827F05D00023C3618F
:1004640002E00023036143610023A36294F8513046
:10047400002B3CD0022384F851302268136823F007
:1004840040031360636803F48273A26802F40442B5
:100494001343E26802F400621343226902F0020289
:1004A4001343626902F001021343A26902F4007269
:1004B4001343E26902F038021343226A02F0800215
:1004C4001343A26A02F40052216813430B60638B46
:1004D400226803F0040353602268D36923F40063A1
:1004E400D36100206065012384F8513010BD84F885
:1004F40050302046FFF730FFBCE7012070477047BB
:1005040030B585B00446026851689368C3F380101F
:1005140013F0400F05D113F0010F02D011F0400F7A
:100524005AD113F0020F02D011F0800F58D1C3F347
:10053400401513F0200F01D1002854D011F0200FE2
:1005440051D078B194F85130DBB2032B4DD0636DA8
:1005540043F00403636500230193D3680193936814
:100564000193019B65B1636D43F00103636500234F
:10057400039393680393136823F040031360039B6E
:10058400636D002B2FD02268536823F0E00353607F
:10059400012384F8513011F0030F2ED022685368E0
:1005A40023F003035360E36C4BB1164A5A63E06CC7
:1005B40000F0AEFC18B1636D43F040036365A36CB7
:1005C4008BB1104A5A63A06C00F0A2FC58B1636D61
:1005D40043F04003636506E0236C2046984702E03D
:1005E400636C2046984705B030BD00230293D3685E
:1005F400029393680293029BF5E72046FFF77FFF7F
:10060400F1E700BF0D06000808B5406A0023C38760
:10061400C386FFF774FF08BD10B504460E4B187867
:100624004FF47A73B3FBF0F30C4A1068B0FBF3F0A9
:1006340000F07AFD68B90F2C01D901200AE00022EC
:1006440021464FF0FF3000F029FD054B1C600020CF
:1006540000E0012010BD00BF0000002008000020C1
:100664000400002008B5074A136843F01003136020
:10067400032000F001FD0F20FFF7CEFFFFF7C2FEBD
:10068400002008BD00200240034A1168034B1B7878
:100694000B441360704700BF80000020000000205E
:1006A400014B1868704700BF8000002082B0084BDF
:1006B4001B68084AA2FB03235B0A00FB03F30193B4
:1006C40000BF019B5A1E0192002BF9D102B0704762
:1006D40008000020D34D6210002800F0F18170B5AD
:1006E40082B00446036813F0010F2CD0994B5B6869
:1006F40003F00C03042B1DD0964B5B6803F00C0332
:10070400082B12D06368B3F5803F41D0002B55D13C
:1007140003F1804303F504331A6822F480321A602B
:100724001A6822F480221A6037E08A4B5B6813F45B
:10073400803FE7D0874B1B6813F4003F03D0636806
:10074400002B00F0BF81236813F0020F75D0814B9A
:100754005B6813F00C0F5FD07E4B5B6803F00C03F7
:10076400082B54D02369002B00F08A807A4B012295
:100774001A60FFF795FF0546764B1B6813F0020FCE
:1007840075D1FFF78DFF401B0228F5D903209EE1A8
:10079400704A136843F480331360636843B3FFF70C
:1007A4007FFF05466B4B1B6813F4003FCBD1FFF76B
:1007B40077FF401B6428F5D9032088E1B3F5A02F07
:1007C40009D0644B1A6822F480321A601A6822F441
:1007D40080221A60E1E703F18043A3F53C331A68F1
:1007E40042F480221A601A6842F480321A60D4E714
:1007F400FFF756FF0546574B1B6813F4003FA2D082
:10080400FFF74EFF401B6428F5D903205FE1514BED
:100814005B6813F4803FA5D14E4B1B6813F0020FA5
:1008240003D02369012B40F04F814A4A136823F017
:10083400F803616943EAC1031360236813F0080FE6
:1008440033D0A369002B5CD0434B0122C3F880242E
:10085400FFF726FF05463F4B5B6A13F0020F21D1D9
:10086400FFF71EFF401B0228F5D903202FE1394A68
:10087400136823F0F803616943EAC1031360DCE7FA
:10088400354B00221A60FFF70BFF0546314B1B68FE
:1008940013F0020FD1D0FFF703FF401B0228F5D954
:1008A400032014E10120FFF701FF236813F0040F74
:1008B40000F09680274BDB6913F0805F34D1254B21
:1008C400DA6942F08052DA61DB6903F08053019304
:1008D400019B0125214B1B6813F4807F26D0E3681C
:1008E400012B3DD0002B53D103F1804303F5043396
:1008F4001A6A22F001021A621A6A22F004021A62C7
:1009040033E0154B0022C3F88024FFF7C9FE0546E7
:10091400104B5B6A13F0020FC7D0FFF7C1FE401BF8
:100924000228F5D90320D2E00025D3E70B4A136847
:1009340043F480731360FFF7B3FE0646074B1B684E
:1009440013F4807FCBD1FFF7ABFE801B6428F5D96D
:100954000320BCE00010024000004242007000404E
:100964005F4A136A43F001031362E36833B3FFF78A
:1009740097FE06465A4B1B6A13F0020F2FD1FFF75E
:100984008FFE801B41F288339842F3D903209EE006
:10099400052B09D0524B1A6A22F001021A621A6A14
:1009A40022F004021A62E0E74D4B1A6A42F0040294
:1009B4001A621A6A42F001021A62D6E7FFF770FE61
:1009C4000646474B1B6A13F0020F08D0FFF768FE78
:1009D400801B41F288339842F3D9032077E0E5B9CC
:1009E400E369002B72D03E4A526802F00C02082AD6
:1009F40056D0022B17D03B4B00221A66FFF750FE4D
:100A04000446374B1B6813F0007F47D0FFF748FEBE
:100A1400001B0228F5D9032059E0314AD36923F099
:100A24008053D361DCE72F4B00221A66FFF738FEB0
:100A340005462B4B1B6813F0007F06D0FFF730FEF2
:100A4400401B0228F5D9032041E0236AB3F5803F17
:100A54001AD023494B6823F47413226A606A024350
:100A640013434B601F4B01221A66FFF719FE04461D
:100A74001B4B1B6813F0007F0ED1FFF711FE001B08
:100A84000228F5D9032022E0154A536823F40033E1
:100A9400A1680B435360DCE7002018E0002016E057
:100AA400012B16D00E4B5B6803F48031226A91420D
:100AB40011D103F47013626A93420ED1002006E050
:100AC40001207047012002E0012000E0002002B074
:100AD40070BD0120FBE70120F9E70120F7E700BF23
:100AE400001002400000424286B0174B0FCB0DF1BC
:100AF400180C0CE90F0040F20123ADF80430134B3D
:100B04005B6803F00C02082A02D0114806B0704753
:100B1400C3F3834218326A4412F8100C13F4803F72
:100B24000DD00A4B5B68C3F3404318336B4413F88E
:100B3400143C074A02FB00F0B0FBF3F0E6E7054B78
:100B440003FB00F0E2E700BF1412000800100240AB
:100B540000127A0000093D00002800F0A08070B562
:100B64000D460446524B1B6803F007038B420BD21D
:100B74004F4A136823F007030B431360136803F011
:100B840007038B4240F08D80236813F0020F17D0C7
:100B940013F0040F04D0474A536843F4E0635360EE
:100BA400236813F0080F04D0424A536843F4605397
:100BB4005360404A536823F0F003A1680B43536029
:100BC400236813F0010F31D06368012B20D0022B6E
:100BD40025D0384A126812F0020F64D035494A68A9
:100BE40022F0030213434B60FFF75AFD0646314BD4
:100BF4005B6803F00C036268B3EB820F16D0FFF757
:100C04004FFD801B41F288339842F0D9032045E020
:100C1400284A126812F4003FE0D101203EE0254A40
:100C2400126812F0007FD9D1012037E0204B1B68F5
:100C340003F00703AB420AD91D4A136823F00703E4
:100C44002B431360136803F00703AB422DD12368D1
:100C540013F0040F06D0174A536823F4E063E168E5
:100C64000B435360236813F0080F07D0114A5368ED
:100C740023F46053216943EAC1035360FFF734FF4F
:100C84000C4B5B68C3F303130B4AD35CD8400B4B88
:100C940018600B4B1868FFF7BFFC002070BD0120E3
:100CA40070470120FAE70120F8E70120F6E700BFCA
:100CB4000020024000100240281200080800002012
:100CC4000400002070B582B00024A446B0E0874D33
:100CD400AA4210D007D9864DAA420CD005F580351A
:100CE400AA4208D013E0A5F58015AA4203D005F561
:100CF4007025AA4207D18A68002A62D0012A5BD0F3
:100D04004361082403E0A5F58015AA42F3D0BEF19F
:100D1400FF0F58D80646BEF1FF0F56D84FEA8C0293
:100D240033680F25954023EA050304FA02F21343BE
:100D340033604B6813F0805F78D06E4B9A6942F051
:100D440001029A619B6903F001030193019B4FEA3D
:100D54009C02951C684B53F825600CF003039D001E
:100D64000F23AB4026EA0306644B984233D003F5C5
:100D74008063984200F0988003F58063984200F005
:100D8400958003F58063984200F0928003F58063B8
:100D9400984200F08F8003F58063984219D00623AF
:100DA4001AE0CC68B3E7CC680434B0E7CC68083404
:100DB400ADE7CC680C34AAE703610824A7E7002454
:100DC400A5E70424A3E7061DA5E7ACF108029200F9
:100DD400A6E7052300E00023AB4033430232464D2F
:100DE40045F822304B6813F4803F65D0444A1368B9
:100DF40043EA0E0313604B6813F4003F62D0404A89
:100E0400536843EA0E0353604B6813F4801F5FD0AA
:100E14003B4A936843EA0E0393604B6813F4001F44
:100E24005CD0374AD36843EA0E03D3600CF1010C5B
:100E34000A6832FA0CF357D0012303FA0CF302EADE
:100E4400030E33EA0202F1D14A68122A3FF63FAF99
:100E5400122A3FF65CAF01A555F822F0FB0C0008FE
:100E6400A70D0008B10D0008C30D0008130D0008FC
:100E7400130D0008130D0008130D0008130D0008CE
:100E8400130D0008130D0008130D0008130D0008BE
:100E9400130D0008130D0008130D0008130D0008AE
:100EA400AB0D0008B70D0008012395E7022393E773
:100EB400032391E704238FE7114A136823EA0E03FF
:100EC400136098E70E4A536823EA0E0353609BE7C6
:100ED4000B4A936823EA0E0393609EE7084AD3689B
:100EE40023EA0E03D360A1E702B070BD0000221014
:100EF40000003110001002400000014000080140D1
:100F0400000401400AB1016170470904016170479E
:100F140008B590F82130022B03D004238363012009
:100F240008BD0268136823F00E0313600268136897
:100F340023F00103136003684B4A93424ED9783A75
:100F4400934224D01432934230D0143293422FD09F
:100F5400143293422FD0143293422FD0143293423E
:100F64002FD0143293422FD002F5627293422ED0C6
:100F7400143293422DD0143293422CD01432934223
:100F840002D04FF4803203E04FF4805200E001229B
:100F9400364B5A60012380F82130002380F820303A
:100FA400436B002B5ED098470020B9E71022EFE78F
:100FB4004FF48072ECE74FF48052E9E74FF480324B
:100FC400E6E74FF48012E3E74FF08072E0E7012296
:100FD400DEE71022DCE74FF48072D9E7244A93421B
:100FE40024D01432934225D01432934224D01432A4
:100FF400934224D01432934224D01432934224D006
:101004001432934224D002F56272934223D01432F4
:10101400934222D01432934221D01432934202D00C
:101024004FF4803203E04FF4805200E00122114B70
:101034005A60AFE71022FAE74FF48072F7E74FF4F3
:101044008052F4E74FF48032F1E74FF48012EEE778
:101054004FF08072EBE70122E9E71022E7E74FF453
:101064008072E4E700205BE7800002400004024055
:101074000800024000000240074AD36823F4E063FA
:101084001B041B0C000200F4E060034343F0BF6345
:1010940043F40033D360704700ED00E000B5194B12
:1010A400DB68C3F30223C3F1070CBCF1040F28BFB0
:1010B4004FF0040C03F1040EBEF1060F18D9033BE4
:1010C4004FF0FF3E0EFA0CFC21EA0C0199400EFA97
:1010D40003F322EA0303194300280BDB0901C9B215
:1010E40000F1604000F5614080F800135DF804FBF6
:1010F4000023E5E700F00F000901C9B2024B1954BF
:10110400F4E700BF00ED00E014ED00E0002807DB89
:1011140000F01F02400901239340024A42F82030A4
:10112400704700BF00E100E00138B0F1807F0BD2CE
:101134004FF0E0235861054AF02182F82310002083
:10114400986107221A6170470120704700ED00E0A2
:10115400704700000C480D490D4A002302E0D458A2
:10116400C4500433C4188C42F9D30A4A0A4C0023ED
:1011740001E013600432A242FBD3FFF7E9FF00F061
:101184000FF8FFF781F87047000000200C000020E2
:10119400401200080C00002084000020FEE700003C
:1011A40070B500260C4D0D4C641BA410A64209D149
:1011B40000F022F800260A4D0A4C641BA410A64233
:1011C40005D170BD55F8043B98470136EEE755F854
:1011D400043B98470136F2E7381200083812000839
:1011E400381200083C12000803460244934200D11E
:1011F400704703F8011BF9E7F8B500BFF8BC08BC59
:101204009E467047F8B500BFF8BC08BC9E467047C0
:1012140002030405060708090A0B0C0D0E0F101033
:1012240000000000000000000000000001020304B0
:041234000607080998
:04123800090200089F
:04123C00E5010008C0
:0C12400001000000100000000024F40079
:040000050800115985
:00000001FF
